{
  "_format": "hh-sol-artifact-1",
  "contractName": "Certify",
  "sourceName": "contracts/Certify.sol",
  "abi": [
    {
      "inputs": [
        {
          "internalType": "address",
          "name": "_owner",
          "type": "address"
        }
      ],
      "stateMutability": "nonpayable",
      "type": "constructor"
    },
    {
      "inputs": [
        {
          "internalType": "bytes32",
          "name": "_hashedMessage",
          "type": "bytes32"
        },
        {
          "internalType": "uint8",
          "name": "_v",
          "type": "uint8"
        },
        {
          "internalType": "bytes32",
          "name": "_r",
          "type": "bytes32"
        },
        {
          "internalType": "bytes32",
          "name": "_s",
          "type": "bytes32"
        }
      ],
      "name": "VerifyMessage",
      "outputs": [
        {
          "internalType": "bool",
          "name": "",
          "type": "bool"
        }
      ],
      "stateMutability": "view",
      "type": "function"
    }
  ],
  "bytecode": "0x608060405234801561001057600080fd5b506040516104f23803806104f2833981810160405281019061003291906100db565b806000806101000a81548173ffffffffffffffffffffffffffffffffffffffff021916908373ffffffffffffffffffffffffffffffffffffffff16021790555050610108565b600080fd5b600073ffffffffffffffffffffffffffffffffffffffff82169050919050565b60006100a88261007d565b9050919050565b6100b88161009d565b81146100c357600080fd5b50565b6000815190506100d5816100af565b92915050565b6000602082840312156100f1576100f0610078565b5b60006100ff848285016100c6565b91505092915050565b6103db806101176000396000f3fe608060405234801561001057600080fd5b506004361061002b5760003560e01c8063659934c114610030575b600080fd5b61004a600480360381019061004591906101eb565b610060565b604051610057919061026d565b60405180910390f35b6000806040518060400160405280601c81526020017f19457468657265756d205369676e6564204d6573736167653a0a3332000000008152509050600081876040516020016100b092919061031a565b6040516020818303038152906040528051906020012090506000600182888888604051600081526020016040526040516100ed9493929190610360565b6020604051602081039080840390855afa15801561010f573d6000803e3d6000fd5b50505060206040510351905060008054906101000a900473ffffffffffffffffffffffffffffffffffffffff1673ffffffffffffffffffffffffffffffffffffffff168173ffffffffffffffffffffffffffffffffffffffff16149350505050949350505050565b600080fd5b6000819050919050565b61018f8161017c565b811461019a57600080fd5b50565b6000813590506101ac81610186565b92915050565b600060ff82169050919050565b6101c8816101b2565b81146101d357600080fd5b50565b6000813590506101e5816101bf565b92915050565b6000806000806080858703121561020557610204610177565b5b60006102138782880161019d565b9450506020610224878288016101d6565b93505060406102358782880161019d565b92505060606102468782880161019d565b91505092959194509250565b60008115159050919050565b61026781610252565b82525050565b6000602082019050610282600083018461025e565b92915050565b600081519050919050565b600081905092915050565b60005b838110156102bc5780820151818401526020810190506102a1565b60008484015250505050565b60006102d382610288565b6102dd8185610293565b93506102ed81856020860161029e565b80840191505092915050565b6000819050919050565b61031461030f8261017c565b6102f9565b82525050565b600061032682856102c8565b91506103328284610303565b6020820191508190509392505050565b61034b8161017c565b82525050565b61035a816101b2565b82525050565b60006080820190506103756000830187610342565b6103826020830186610351565b61038f6040830185610342565b61039c6060830184610342565b9594505050505056fea26469706673582212204ff7ba5666f015e2bea20af5123c5594b1ec07fc9945194972a1fdab550517e964736f6c63430008130033",
  "linkReferences": {},
  "deployedLinkReferences": {}
}